:0F0003007D367C07ED1D70011C144C70F7DFF18A
:0100120022CB
:10025700EFFB7A00702ED3ED9420EC941740047CCA
:10026700177D20C3ED9450EC940050047C007D5022
:10027700C2DE8C118D12C374709DF50C74179CF53A
:100287000BD2DE22EB64014A702ED3ED9420EC945E
:100297001740047C177D20C3ED9450EC9400500464
:1002A7007C007D50C2DE8C138D14C374709DF50ED7
:1002B70074179CF50DD2DE22EB64024A702DD3ED44
:1002C7009420EC941740047C177D20C3ED9450ECE8
:1002D700940050047C007D50C2DE8C158D16C374CB
:0C02E700709DF51074179CF50FD2DE22FC
:10003E008B2A8A2B892CAD07EDD394037480948080
:10004E0040030201B7EF6403705BC2DEF5F9F5E918
:10005E00AB2AAA2BA92C1202F3FFE5A254CF4FF51F
:10006E00A290000112030CFFE5D954F14FF5D9907F
:10007E00000412030C5401FFE5D954FE4FF5D9903C
:10008E00000512030C64017004D2BF8002C2BFAB24
:10009E002AAA2BA92C90000812030C6401600302FB
:1000AE0001B7D2DE22AB2AE52C2404F9E4352BFA73
:1000BE001202F35431120339AB2AAA2BA92C900049
:1000CE000212030CC3944874809480400FE92404F8
:1000DE00F9E43AFA1202F354CF120339ED7040AB41
:1000EE002AAA2BA92C90000412030CFF90000212D6
:1000FE00030CFE4FF5DA90000312030CFFE5F254E9
:10010E003F4FF5F290000612034BF51285F011C227
:10011E00008E08851117F5188518EAE517F5FAED22
:10012E0064017040AB2AAA2BA92C90000412030C78
:10013E00FF90000212030CFE4FF5DB90000312033A
:10014E000CFFE5F3543F4FF5F390000612034BF509
:10015E001485F013C2018E09851319F51A851AEB51
:10016E00E519F5FBED64027040AB2AAA2BA92C9081
:10017E00000412030CFF90000212030CFE4FF5DC7C
:10018E0090000312030CFFE5F4543F4FF5F490007A
:10019E000612034BF51685F015C2028E0A85151B45
:0A01AE00F51C851CECE51BF5FC2296
:03003B000203833A
:10038300C0E0C0D030D822C2D830A50AE512251863
:10039300F518E5118008E50C2518F518E50B351758
:1003A300F5178518EAE517F5FA30D922C2D930A630
:1003B3000AE514251AF51AE5138008E50E251AF542
:1003C3001AE50D3519F519851AEBE519F5FB30DA40
:1003D30022C2DA30A70AE516251CF51CE5158008AC
:1003E300E510251CF51CE50F351BF51B851CECE5FD
:0803F3001BF5FCD0D0D0E03274
:1003FB00752208752120E4F525752601F529FB7A70
:10040B000079217F0312003E75234CE4F5247525FA
:10041B000174FFF527F5287B007A007921E4FF12A0
:10042B00003E75234CE4F52475250174FFF527F583
:10043B00287B007A0079217F0112003E75234CE462
:10044B00F52475250174FFF527F5287B007A0079D3
:06045B00217F0202003EB9
:1001B80053951F4396E01203FB752D05752EDC75CC
:1001C8002F0B7530B8753111753294AD2EAC2DE406
:1001D800FF120257AD30AC2F7F01120257AD32AC7F
:1001E800317F02120257D2AF7F02120003052EE5BB
:1001F8002E7002052DC39420E52D94174006752D09
:1002080000752E50AD2EAC2DE4FF1202570530E5D7
:10021800307002052FC39420E52F94174006752FE0
:1002280000753050AD30AC2F7F011202570532E512
:100238003270020531C39420E531941740067531B8
:0F02480000753250AD32AC317F021202578099EF
:03000000020013E8
:0C001300787FE4F6D8FD7581320201B858
:1002F300BB010689828A83E0225002E722BBFE0209
:09030300E32289828A83E493223B
:10030C00BB010CE58229F582E5833AF583E02250A6
:10031C0006E92582F8E622BBFE06E92582F8E222F0
:0D032C00E58229F582E5833AF583E493220A
:10033900BB010689828A83F0225002F722BBFE01A3
:02034900F3229D
:10034B00BB0110E58229F582E5833AF583E0F5F0F0
:10035B00A3E0225009E92582F886F008E622BBFECD
:10036B000AE92582F8E2F5F008E222E5832AF58313
:08037B00E993F5F0A3E99322D8
:00000001FF
